< 8=FIXT.1.1|9=107|35=A|49=FIXCLIENT|56=FIXSERVER|34=1|52=20210819-10:55:45|98=0|108=30|553=USER|554=Password|1137=9|10=087|
> 8=FIXT.1.1|9=80|35=A|34=1|49=FIXSERVER|52=20210819-10:55:45.864|56=FIXCLIENT|98=0|108=30|1137=9|10=000|
< 8=FIXT.1.1|9=133|35=D|49=FIXCLIENT|56=FIXSERVER|34=2|52=20210819-10:55:47|11=1748689057|21=1|55=ERICB.ST|54=1|60=20210819-10:55:47|40=2|44=50|38=1000|10=167|
> 8=FIXT.1.1|9=106|35=j|34=2|49=FIXSERVER|52=20210819-10:55:47.836|56=FIXCLIENT|45=2|58=Unsupported Message Type|372=D|380=3|10=252|
